:020000040000FA
:06000000C3EF01F0120045
:0A0006000100F60300008A0000006C
:0400100001000000EB
:0C0014008B8E00008B9E1200D9CFE6FFFF
:10002000E1CFD9FF020EE1268B9E00008B9C0000E1
:100030000F0E8C14006EFE0EDB50F00B0010DF6E06
:10004000DF508C6EE7DF040EE66EDFEC01F0E55268
:100050000F0E8C14006EFE0EDB38F00B0010DF6EFE
:10006000DF508C6ED7DF040EE66EDFEC01F0E55258
:10007000020EE15C02E2E16AE552E16EE552E7CF91
:10008000D9FF12008B9A010EE66EC8DFE552140EFE
:10009000E66ED1EC01F0E5521200D9CFE6FFE1CFD8
:1000A000D9FF8B8AFD0EDBCFE9FFFE0EDBCFEAFF27
:1000B000EF500EE0FD0EDBCFE9FFDB2AFE0EDBCFBB
:1000C000EAFF01E3DB2AEF50E66EA8DFE552EAD74C
:1000D000E552E7CFD9FF1200D9CFE6FFE1CFD9FF34
:1000E0008B8AFE0EDBCFE6FF99DFE552E552E7CFC4
:1000F000D9FF1200D9CFE6FFE1CFD9FF8B9AFE0ED0
:10010000DB50800FE66E8ADFE552E552E7CFD9FF7C
:1001100012008B9A8B9E8B9C8B88280EE66EA3EC2C
:1001200001F0E552F00E8C1403098C6E8B9E8B9CB3
:100130008B9A8B886FDF320EE66ED1EC01F0E552C0
:1001400069DF0A0EE66EDFEC01F0E55263DF0A0EAE
:10015000E66EDFEC01F0E552F00E8C1402098C6EB5
:100160008B9E8B9C8B9A8B8855DF0A0EE66EDFEC9C
:1001700001F0E552280EE66E51DFE5520F0EE66EF5
:100180004DDFE552010EE66E49DFE552070EE66EE1
:0601900045DFE5521200FC
:0A019600D9CFE6FFE1CFD9FF070E35
:1001A000E126010EF36EDB6E020EDB6A9268936845
:1001B0000F0E946E030E956EE66A040EE66EE10E67
:1001C000E66E6CEC01F0E552E552E55289EC00F088
:1001D00042EC00F0050EE66EDFEC01F0E552DF6A5E
:1001E000DF84F8EC01F0F3EC01F00009FCE1EAEC4B
:1001F00001F0050EF3CFDBFF060EF4CFDBFF050E9B
:10020000DBCF00F0060EDBCF01F0013407E2005037
:100210004708010E015402E2080E01D0000EDF1261
:10022000A50EE66E6CEC00F0E5520C0EDF14006ECD
:0A023000F00E8C1400108C6ED2D773
:06023A00060EF66E000E38
:10024000F76E000EF86E00010900F550856F090089
:10025000F550866F03E1856701D03DD00900F55068
:10026000806F0900F550816F0900F550826F090019
:100270000900F550E96E0900F550EA6E0900090021
:100280000900F550836F0900F550846F09000900DB
:10029000F6CF87F0F7CF88F0F8CF89F080C0F6FF6F
:1002A00081C0F7FF82C0F8FF0001835302E184534D
:1002B00007E00900F550EE6E8307F8E28407F9D7EE
:1002C00087C0F6FF88C0F7FF89C0F8FF00018507E7
:0802D000000E865BBFD712008F
:0802D800D9CFE6FFDACFE6FF03
:1002E000E1CFD9FFE2CFDAFFC26AC06AFC0EDB4081
:1002F0007F0B3C0BC26EFC0EDB38F00B300B006E3C
:10030000FB0EDB500F0B0010C16EFD0EDB50040D19
:10031000F350380B016EFD0EDB380F0B070B006E30
:10032000FD0EDB50800B00100110C06EFC0EDBAE2A
:1003300003D09E9C9D8CF28CC280E552E5CFDAFF03
:06034000E7CFD9FF120017
:0A034600FF0EE350066E480E01D0D2
:100350004C0EE76EE72EFED7E76AE72EFED7062E95
:06036000F7D700001200B7
:0A036600000EF36E00EE00F0060E2C
:1003700001D81200EA6002D0EE6AFCD7F350E960BF
:060380001200EE6AFCD73A
:0A03860015EE00F025EE00F0F86A15
:10039000059C1DEC01F0FAEC01F0CBEC00F0FBD772
:0203A000120049
:0E03A200FF0EE350066E1B0E00D001D0200EA1
:0E03B000E76EE72EFED7062EFAD700D0120019
:0203BE00FF0E30
:1003C000E350E84E1200000000D000D000D0E82E2C
:0403D000FAD7120046
:0C03D400C450036E026AC3500210F36EA6
:0603E00003C0F4FF12004F
:0A03E600C250020B01E0010E1200EC
:0403F000C2821200B3
:0203F4001200F5
:0103F6000006
:020000040030CA
:0100010008F6
:010003001EDE
:0100060005F4
:00000001FF
