:020000040000FA
:060000009FEF02F0120068
:020006000000F8
:080008000000000000000000F0
:1000100000000000000000000000000000000000E0
:1000200012003C0EE66E7FEC02F0E5521200140E58
:10003000E66E7FEC02F0E5521200D9CFE6FFE1CF89
:10004000D9FF080EE126010EF36EDB6E020EDB6AAD
:100050009268936A9468E66A040EE66EE10EE66EB4
:10006000EEEC00F0E552E552E552200EE66E6CEC47
:1000700002F0E552050EE66EADEC02F0E552080E18
:10008000816E610EF36E030EF3CFDBFFDF6A000EAD
:10009000DF90DF92DF94040EDB6A050EDB6A040E4C
:1000A000DBCF00F0050EDBCF01F0D890015004E665
:1000B000E80E005C030E015806E2040EDB2A050E72
:1000C000EEE3DB2AECD7D950010FE96EDACFEAFF75
:1000D000EE50ED1002E0000E01D0010E006E016A3C
:1000E00000BE0168010E00C0DBFF020E01C0DBFF95
:1000F000010EDB50DF12C6EC02F0C1EC02F0000989
:10010000FCE1B8EC02F0060EF3CFDBFF070EF4CFF4
:10011000DBFF060EDBCF00F0070EDBCF01F0013472
:1001200007E200500008020E015402E2040E01D062
:0E013000000EDF12030EDB2ADF508A6EA7D707
:02013E00060EAB
:10014000F66E000EF76E000EF86E00010900F55015
:10015000856F0900F550866F03E1856701D03DD0BA
:100160000900F550806F0900F550816F0900F550C6
:10017000826F09000900F550E96E0900F550EA6E3A
:10018000090009000900F550836F0900F550846FDC
:1001900009000900F6CF87F0F7CF88F0F8CF89F093
:1001A00080C0F6FF81C0F7FF82C0F8FF00018353D3
:1001B00002E1845307E00900F550EE6E8307F8E290
:1001C0008407F9D787C0F6FF88C0F7FF89C0F8FF1A
:0C01D00000018507000E865BBFD71200FF
:0401DC00D9CFE6FF92
:1001E000DACFE6FFE1CFD9FFE2CFDAFFC26AC06A19
:1001F000FC0EDB407F0B3C0BC26EFC0EDB38F00BC1
:10020000300B006EFB0EDB500F0B0010C16EFD0EAD
:10021000DB50040DF350380B016EFD0EDB380F0B75
:10022000070B006EFD0EDB50800B00100110C06E3E
:10023000FC0EDBAE03D09E9C9D8CF28CC280E552FE
:0A024000E5CFDAFFE7CFD9FF120087
:06024A00D9CFE6FFE1CF71
:10025000D9FFF00E95168316FE0EDB508009E838A4
:100260000F0B0F0B83128C9A8C9804EC00F08C8C83
:1002700004EC00F08C9CF00E8316FE0EDB500F0B8E
:10028000831204EC00F08C8C04EC00F08C9C0F0EBC
:0A0290009512E552E7CFD9FF1200E6
:06029A00D9CFE6FFE1CF21
:1002A000D9FFF00E95168316FE0EDB504009E83894
:1002B0000F0B0F0B83128C9A8C9804EC00F08C8C33
:1002C00004EC00F08C9CF00E8316FE0EDB500F0B3E
:1002D000831204EC00F08C8C04EC00F08C9C0F0E6C
:0A02E0009512E552E7CFD9FF120096
:0602EA00D9CFE6FFE1CFD1
:1002F000D9FFFD0EDBCFF6FFFE0EDBCFF7FF0800C8
:10030000F55016E051EC02F00009FCE1FD0EDBCFE8
:10031000F6FFFE0EDBCFF7FF0800F550E66E9CEC13
:1003200001F0E552FD0EDB2AFE0EE3E3DB2AE1D706
:08033000E552E7CFD9FF1200EE
:08033800D9CFE6FFE1CFD9FFA8
:10034000F00E95168316FE0EDB380F0B0F0B831283
:100350008C888C9A04EC00F08C8C04EC00F08C9C63
:10036000F00E8316FE0EDB500F0B831204EC00F030
:100370008C8C04EC00F08C9C0F0E9512E552E7CFAC
:04038000D9FF12008F
:0C038400D9CFE6FFE1CFD9FFF00E9516AF
:100390008316FE0EDB380F0B0F0B83128C9A8C9892
:1003A00004EC00F08C8C04EC00F08C9CF00E8316B6
:1003B000FE0EDB500F0B831204EC00F08C8C04EC6F
:1003C00000F08C9C0F0E9512E552E7CFD9FF12007A
:1003D000D9CFE6FFE1CFD9FFFD0EDBCFE9FFFE0E5F
:1003E000DBCFEAFFEF5015E051EC02F00009FCE131
:1003F000FD0EDBCFE9FFFE0EDBCFEAFFEF50E66E2E
:100400009CEC01F0E552FD0EDB2AFE0EE5E3DB2A53
:0A041000E3D7E552E7CFD9FF120051
:06041A00D9CFE6FFE1CF9F
:10042000D9FFE6528C8A8C8804EC00F08C8C04ECAA
:1004300000F08338F00BF00BDF6E8C9C04EC00F0C6
:100440008C8C04EC00F00F0E8314DF128C9C8C98C3
:0E0450008C9ADF50E552E552E7CFD9FF12003B
:02045E00D9CFF4
:10046000E6FFE1CFD9FFE6528C8A8C9804EC00F0CD
:100470008C8C04EC00F08338F00BF00BDF6E8C9C5E
:1004800004EC00F08C8C04EC00F00F0E8314DF12EF
:100490008C9C8C9A7F0EDF14E552E552E7CFD9FF92
:0204A000120048
:0E04A2008C8A8C9804EC00F08C8C04EC00F03A
:1004B00083A609D08C9C04EC00F08C8C04EC00F03A
:1004C0008C9C8C9A010C8C9C04EC00F08C8C04ECC1
:0804D00000F08C9C8C9A000CDA
:0804D800D9CFE6FFE1CFD9FF07
:1004E000F00E83169516959A9598959C8C9A8C98F3
:0E04F0008C9C11EC00F0E552E7CFD9FF120012
:0204FE00FF0EEF
:10050000E350066E480E01D04C0EE76EE72EFED784
:0E051000E76AE72EFED7062EF7D7000012008E
:02051E00000ECD
:10052000F36E00EE00F0060E01D81200EA6002D071
:0E053000EE6AFCD7F350E9601200EE6AFCD7C9
:02053E0015EEB8
:1005400000F025EE00F0F86A059C9FEC00F0C8EC86
:0A05500002F01DEC00F0FBD71200D2
:06055A00FF0EE350E84E25
:100560001200000000D000D000D0E82EFAD7120010
:10057000C450036E026AC3500210F36E03C0F4FF4E
:02058000120067
:0A058200C250020B01E0010E12004E
:04058C00C282120015
:02059000120057
:020000040030CA
:0100010008F6
:010003001EDE
:0100060005F4
:00000001FF
